:020000040800F2
:100000000000052065D300084B0F00084D0F0008C5
:100010004F0F0008510F0008530F000800000000A8
:10002000000000000000000000000000B13A0008DD
:10003000550F000800000000513B0008570F000852
:10004000B5D30008B5D30008B5D30008B5D3000870
:10005000B5D30008B5D30008B5D30008B5D3000860
:10006000B5D30008B5D30008B5D30008B5D3000850
:10007000B5D30008B5D30008B5D30008B5D3000840
:10008000B5D30008B5D30008B5D30008B5D3000830
:10009000B5D30008B5D30008B5D30008B5D3000820
:1000A000B5D30008610F0008B5D30008B5D3000828
:1000B000B5D30008B5D30008B5D30008B5D3000800
:1000C000B5D30008B5D30008B5D30008B5D30008F0
:1000D000B5D30008B5D30008B5D30008B5D30008E0
:1000E000B5D30008B5D30008B5D30008B5D30008D0
:1000F000B5D30008B5D30008B5D30008B5D30008C0
:10010000B5D30008B5D30008B5D30008B5D30008AF
:10011000B5D30008B5D30008B5D30008B5D300089F
:10012000B5D30008B5D30008B5D30008B5D300088F
:10013000B5D30008710F0008B5D30008B5D3000887
:10014000B5D30008B5D30008B5D30008B5D300086F
:10015000B5D30008B5D30008B5D30008B5D300085F
:10016000B5D30008B5D30008B5D30008B5D300084F
:10017000B5D30008B5D30008B5D3000800000000CF
:10018000B5D30008B5D30008B5D30008B5D300082F
:10019000B5D30008B5D30008B5D30008B5D300081F
:1001A000B5D30008B5D30008B5D30008B5D300080F
:1001B000B5D30008B5D30008B5D30008B5D30008FF
:0801C000B5D30008B5D3000817
:1001D00010B5054C237833B9044B13B10448AFF381
:1001E00000800123237010BD780000200000000073
:1001F000B8E200080C4B43B10C480D4910B5AFF301
:1002000000800C48036823B910BD0A48036833B95D
:100210007047094B002BF7D0BDE810401847064B3C
:10022000002BF5D0184700BF00000000B8E200081E
:100230007C0000207800002000000000034613F836
:10024000012B002AFBD1181A01387047000000006A
:1002500001F0FF01102A2BDB10F0070F08D010F877
:10026000013B013A8B422DD010F0070F42B3F6D17B
:10027000F0B441EA012141EA014122F007047FF094
:1002800000070023F0E80256083C85EA010586EAEB
:10029000010685FA47F5A3FA87F586FA47F6A5FA27
:1002A00087F68EB9EED1F0BC01F0FF0102F0070233
:1002B00032B110F8013B013A83EA010313B1F8D1DE
:1002C0000020704701387047002D06BF35460338BF
:1002D000073815F0010F07D1013015F4807F02BFF8
:1002E000013015F4C03F0130F0BC0138704700BF49
:1002F00053B94AB9002908BF00281CBF4FF0FF318D
:100300004FF0FF3000F07AB9ADF1080C6DE904CE82
:1003100000F006F8DDF804E0DDE9022304B07047E0
:100320002DE9F0478C460D460446089E002B51D11E
:100330008A4217466DD9B2FA82FEBEF1000F0BD089
:10034000CEF1200C01FA0EF520FA0CFC02FA0EF7A1
:100350004CEA050C00FA0EF44FEA174A250CBCFBD8
:10036000FAF81FFA87F90AFB18CC45EA0C4508FB96
:1003700009F3AB420AD9ED1908F1FF3280F023816D
:10038000AB4240F22081A8F102083D44ED1AA4B22C
:10039000B5FBFAF00AFB105544EA054400FB09F9E5
:1003A000A14509D9E41900F1FF3380F00A81A14584
:1003B00040F2078102383C44A4EB090440EA0840BB
:1003C0000021002E61D024FA0EF400233460736003
:1003D000BDE8F0878B4207D9002E54D0002186E873
:1003E00021000846BDE8F087B3FA83F1002940F008
:1003F0008E80AB4202D3824200F2FA80841A65EB0F
:1004000003050120AC46002E3FD086E81010BDE861
:10041000F08712B90127B7FBF2F7B7FA87FEBEF1F2
:10042000000F34D1EB1B3A0C1FFA87FC0121B3FB00
:10043000F2F8250C02FB183345EA03450CFB08F3E0
:10044000AB4207D9ED1908F1FF3002D2AB4200F2FE
:10045000D1808046ED1AA3B2B5FBF2F002FB105535
:1004600043EA05440CFB00FCA44507D9E41900F15C
:10047000FF3302D2A44500F2B8801846A4EB0C0466
:1004800040EA08409DE731463046BDE8F087CEF1AE
:10049000200405FA0EF307FA0EF720FA04F83A0CD6
:1004A00025FA04F448EA0308B4FBF2F14FEA1845D0
:1004B00002FB11441FFA87FC45EA044501FB0CF3DB
:1004C000AB4200FA0EF409D9ED1901F1FF3080F0CA
:1004D0008A80AB4240F2878002393D44EB1A1FFA12
:1004E00088F5B3FBF2F002FB103345EA034500FB4D
:1004F0000CF3AB4207D9ED1900F1FF386FD2AB42D4
:100500006DD902383D44EB1A40EA01418FE7C1F151
:10051000200722FA07F88B4005FA01F448EA0303A2
:1005200020FA07FE4FEA134CFD404EEA040EB5FBDD
:10053000FCF94FEA1E440CFB19551FFA83F844EAF4
:10054000054509FB08F4AC4202FA01F200FA01FA8F
:1005500008D9ED1809F1FF3043D2AC4241D9A9F1D5
:1005600002091D442D1B1FFA8EFEB5FBFCF00CFB8F
:1005700010554EEA054400FB08F8A04507D9E418D9
:1005800000F1FF3529D2A04527D902381C4440EAA2
:100590000940A4EB0804A0FB02894C45C6464D4621
:1005A00015D312D056B1BAEB0E0364EB050404FA6E
:1005B00007F7CB401F43CC40376074600021BDE893
:1005C000F0871846F8E69046E0E6C245EAD2B8EB76
:1005D000020E69EB03050138E4E72846D7E74046F9
:1005E00091E78146BEE7014678E702383C4445E79B
:1005F000084608E7A8F102083D442BE7704700BF12
:10060000F0B58DB0314B1A6B42F004021A631A6BCD
:1006100002F004020192019A1A6B42F080021A63FE
:100620001A6B02F080020292029A1A6B42F00102E7
:100630001A631A6B02F001020392039A1A6B42F0DA
:1006400002021A631A6B02F002020492049A1A6BF5
:1006500042F008021A631A6B02F008020592059A2A
:100660001A6B42F040021A631B6B03F040030693BF
:10067000069B174F002244F28101384603F042F8EE
:10068000144D00224021284603F03CF844F2810337
:10069000079301260896002409940A9407A938466E
:1006A00002F042FF40230793089609940A9407A991
:1006B000284602F039FF802307930894099407A97C
:1006C000284602F031FF0DB0F0BD00BF00380240F7
:1006D0000004024000180240044B1B68DA6912F063
:1006E000800FF9D0C0B298620020704728440020E3
:1006F000064B1B68DA6912F0280F04D008221A6230
:10070000586AC0B270470020704700BF28440020DC
:1007100038B500F087F909F029FD1B4C2060027AFA
:1007200042F020020272194D0022294609F0E4FB32
:100730000A222946206809F0C7FC154800F048FD48
:1007400000224FF48061104605F000FF044605E0EA
:10075000104800F03DFD642004F099FCFFF7C8FF4D
:1007600001460028F7D00C4800F032FD0A230B4A5E
:1007700021460548006809F089FC01460028E7D1B8
:10078000074800F025FDE6E7B8480020ACFE000869
:1007900004E3000820E3000818E30008B0FE0008A6
:1007A0001CE3000808B50268034B9A4200D008BD5C
:1007B00002F0BAFFFBE700BF00000140FEE70000C7
:1007C00008B50C480C4B03604FF4E1334360002341
:1007D0008360C36003610C2242618361C361036271
:1007E000436201F030FE00B908BD4FF4AF71034819
:1007F000FFF7E4FF2844002000480040F8E200082A
:1008000008B50D484FF0A043036006234360022261
:10081000C26000230361436182610122C2610362FD
:100820004362C262036301F042FE00B908BD4FF4A7
:10083000BA710248FFF7C2FF98440020F8E20008AE
:1008400000B589B02448254B0360002343607F2214
:100850008260FF22C2600361436183610CF008FC87
:1008600030BB00238DF808308DF809308DF80A3040
:1008700006930793012202A917480CF0C5FCE0B9C2
:1008800001228DF804208DF805208DF80620002324
:100890008DF8073001A910480CF048FC90B90022EF
:1008A00011460D480CF030FD88B909B05DF804FB25
:1008B0004FF496710A48FFF781FF4FF49C71084886
:1008C000FFF77CFF4FF4A1710548FFF777FF40F277
:1008D00049110348FFF772FF9848002000280040A4
:1008E000F8E2000800B5B5B0334B1A6C42F0805204
:1008F0001A641B6C03F080530093009B2F4A13680B
:1009000023F4404343F480431360136803F44043EB
:100910000193019B092328934FF4A02329930123DA
:100920002D9302232E934FF480022F9204223092B3
:100930004822319232930323339328A801F0D4FF45
:1009400068BB0F23239302212491002325934FF4A6
:1009500080522692279323A802F01AFA18BB184B4C
:1009600002934FF400730E9300231593219302A872
:1009700002F004FBD8B902F0BDFA124BA3FB003021
:10098000800901F035F9042001F048F900220F2117
:100990004FF0FF3001F0F0F835B05DF804FBEB21CB
:1009A0000948FFF70BFFF9210748FFF707FF40F25F
:1009B00003110548FFF702FF0038024000700040B5
:1009C00020012000D34D6210F8E2000800B587B086
:1009D00002F09EFEFFF786FFFFF712FEFFF7F0FE24
:1009E000FFF70EFFFFF72CFF0A4800F083FB0A48D1
:1009F00000F0EEFB01AC094D0FCD0FC42B68236056
:100A0000002101A804F029FB054B186004F016FB37
:100A1000FEE700BF2844002024E30008D0E20008DD
:100A20002444002030B585B00021084604F014FEAF
:100A3000114900200860114A1060114B1860114CD8
:100A4000114D0295114D01950090204605F0B4FB23
:100A5000204605F0F1FB94F82F3013F0040F07D176
:100A6000084805F001FC07480AF008FD05B030BD54
:100A7000204605F0E7FBF6E7F0480020F4480020A8
:100A8000F8480020BC480020C1550008610E00084D
:100A90002DE9F047344800F007FE002860D1324BC2
:100AA000998FD3F8408049B94FF0000ABAF1000F8E
:100AB00033D02D4B1F6BD146002427E003220420A6
:100AC00005F044FD8246F1E7D9F8040040F2F45203
:100AD000121B08EB040130440CF0A1FCFF68D7F8AE
:100AE0000880A5F2F452361B06F2F4560024A5182D
:100AF00040F2F4539D42E7D8D9F8040008EB040112
:100B000030440CF08CFCD9F800902C46B9F1000F61
:100B100003D0B9F80A200026E9E7134B1B6B00212C
:100B200005E01A6842F000421A60DB6801310E4AA3
:100B3000926B9142F5D30C4B00229A631B6841F2F1
:100B400014029A5812F0800F07D0802141F214024B
:100B50009950002141F2080299505046BDE8F087B3
:100B60004FF0000AF9E700BFCC61002038B5054618
:100B70004FF0FF310B4B186804F014FB0028F7D13D
:100B800001E0002CF4D02846FFF782FF044600283D
:100B9000F7D02B69294698470028F2D0204605F067
:100BA00069FCEEE7940000202DE9F84F8B462C4BB2
:100BB000DE6AD6F808A000242746BBF1000F32D029
:100BC0003368002B35DBBBF80A90002504EB0908DD
:100BD00040F2F453984519D9DBF8041040F2F4526E
:100BE000121B29440AEB04000CF019FCF668336868
:100BF000002B21DBD6F808A0A8F2F4592D1B05F232
:100C0000F4553F1B07F2F4570024DFE7DBF804102C
:100C10004A4629440AEB04000CF001FC4F44DBF87F
:100C200000B04446C9E739460D4800F0ABFC00204F
:100C300004E06FF0070001E06FF00700084B1B684D
:100C400041F214029A5812F0200F07D0202141F2ED
:100C500014029950002141F204029950BDE8F88F26
:100C6000CC610020F0B58BB00446002309933D48C9
:100C70003D4A02600122426003828DF81C308021CF
:100C80008DF81D10E1218DF81E108DF81F308DF8A4
:100C900020308DF8213007A941618261C3614FF492
:100CA0000003036200F00AFE28B994F82F3043F0E5
:100CB000040384F82F302B4D04232C4A2C4928465A
:100CC00000F0F1FB04232B4A2B49284600F024FCBA
:100CD000062384F828306B691A7884F829205A781A
:100CE00084F82A209A7884F82B20DA7884F82C204B
:100CF0001A7984F82D205B7984F82E3040F2DC5389
:100D0000E38494F82F3043F00A0384F82F300AA8C4
:100D1000002340F8103D012104F030FA174B186011
:100D200001AE174F0FCF0FC63B683360214601A8B5
:100D300004F093F9284600F0EBFE09AA0B2128469F
:100D400000F046FD099A42F00B0209920B21284659
:100D500000F07AFD09AA0B21284600F039FD0BB0FE
:100D6000F0BD00BFCC610020008002401462002072
:100D7000FC4800207C4900204C61002094000020A9
:100D8000E4E2000802682D4B9A4200D07047F0B5AB
:100D900089B0A3F590431A6B42F000721A631A6B84
:100DA00002F000720092009A1A6B42F080621A639D
:100DB0001A6B02F080620192019A1A6B42F0006293
:100DC0001A631B6B03F000630293029B32230393AD
:100DD0000227049700240594032606960B25079501
:100DE00003A9174802F0A0FB8623039304970594F8
:100DF0000696079503A9134802F096FB4FF400539B
:100E00000393049705940696079503A90E4802F0EC
:100E10008BFB4FF420530393049705940696079594
:100E200003A90A4802F080FB224605213D2000F07C
:100E3000A3FE3D2000F0D0FE09B0F0BD00800240CE
:100E40000008024000000240000402400018024076
:100E500008B5024B186804F0DFF908BD94000020C3
:100E600010B5044670B1732384F83030742384F8CD
:100E70003130084B6361084BA3612046FFF7F2FE57
:100E8000002010BD054B40F24722054905480CF0F3
:100E9000D9FAE8E701BF0008A90B000838E3000809
:100EA0004CE300085CE3000808B502F049FC08BD0B
:100EB00003460D4A126862B10B4A10680B4A126869
:100EC0001268A2F5005203449A4206D3064A136000
:100ED00070470749044A1160EEE70C22054B1A607F
:100EE0004FF0FF30704700BF9800002008ED00E091
:100EF00000B30020B4B2002070B51646002405E00F
:100F00004D1C0878FFF7E8FB01342946B442F7DBB3
:100F1000304670BD4FF0FF3070474FF400534B60C8
:100F2000002070470120704700207047F8B50D463B
:100F30001746002405E06E1CAFF3008028700134D2
:100F40003546BC42F7DB3846F8BD7047FEE7FEE7A2
:100F5000FEE7FEE7704708B504F018FA08BD000088
:100F600008B5024800F07BFE08BD00BFBCB20020FF
:100F700008B5024800F0E6FB08BD00BFCC610020C8
:100F800000B583B0214B1A6C42F080521A641A6C7F
:100F900002F080520092009A5A6C42F480425A64E5
:100FA0005B6C03F480430193019B032000F0D2FDAE
:100FB000002211466FF00B0000F0DEFD002211460A
:100FC0006FF00A0000F0D8FD002211466FF0090012
:100FD00000F0D2FD002211466FF0040000F0CCFDBD
:100FE000002211466FF0030000F0C6FD00220F2121
:100FF0006FF0010000F0C0FD00220F214FF0FF3024
:1010000000F0BAFD03B05DF804FB00BF00380240F9
:101010000268054B9A4200D07047044A136F43F4AC
:1010200000431367F8E700BF002800400038024083
:101030000268114B9A4200D0704700B587B003F5A3
:10104000F8331A6C42F480221A641B6C03F4802378
:101050000093009B4FF440730193022302930023FB
:101060000393032304930723059301A9034802F084
:101070005BFA07B05DF804FB00480040000C02403A
:101080000368B3F1A04F00D0704730B589B04FF47A
:10109000E853039302230493002405940323069347
:1010A0000A230793114D03A9284602F03DFA4FF495
:1010B000007303930494059403A9284602F034FABC
:1010C0000B4B5A6B42F080025A635A6B02F080025B
:1010D0000192019A5A6C42F480425A645B6C03F4A8
:1010E00080430293029B09B030BD00BF0000024064
:1010F00000380240014B1860704700BF9C00002080
:10110000044B1B681B68DA6912F0800FF8D09862F4
:10111000704700BF9C00002008B5FFF7F1FF08BD35
:1011200010B5044602E00134FFF7F6FF20780028EE
:10113000F9D110BDF0B587B0B1F1000C07DB00218B
:10114000002A0DDB2027142A40DC002617E0CCF112
:10115000000C002801DB0021F2E740422D21EFE7DF
:1011600052423027EFE73033741CE4B20DF1180E11
:10117000B6440EF8143CB0FBF5F060B126465FFAB9
:101180008CF5B0FBF5F305FB1303DBB2092BEAD9B1
:101190000733DBB2E7E761B1023606AB1C4404F863
:1011A000141CF4B205E00134E4B206A90B4403F8C0
:1011B000147C2346A242F6DC013CE4B206AB234495
:1011C00013F8140CFFF7A8FF002CF5D107B0F0BD01
:1011D0000FB430B583B006AB53F8044B019338E03D
:1011E00002342B78302B02D0002500220BE0AC1CFF
:1011F0006B780125F9E702EB82004100303B0B449C
:101200001A4423780134A3F130010929F3D905B137
:1012100052426C2B26D00020002B4AD0732B25D0B5
:10122000632B2AD0752B2FD00021642B2ED0782B46
:1012300018BF582B00D11021622B2AD0002938D09A
:1012400048BB00292EDD019B181D01901868FFF78F
:1012500071FF651C207860B32528C1D0FFF75CFFC3
:101260002C46F6E7237801340120D5E7019B1A1DAF
:1012700001921868FFF754FFEBE7019B1A1D0192DA
:101280001878FFF749FFE4E70A21CEE76FF009017C
:10129000CDE70221D2E7019B181D01901868FFF7E6
:1012A00049FFD6E7019B181D01901868FFF742FF20
:1012B000CFE703B0BDE8304004B0704750791379F0
:1012C00043EA002307480B50D07893781B0443EA85
:1012D0000063507843EA002312781343024A8B508C
:1012E000704700BF4080024044800240016841F2E4
:1012F00018028B5843F400538B507047016841F239
:1013000018028B5843F002038B50704770B59EB0A3
:10131000044629B14FF40063C3604FF480438360F7
:10132000E369002B68D14FF48063079321680B6851
:10133000374A1A40A368E06803430798034343F41D
:10134000007313430B6023681D68012002F0FEF94F
:1013500023681D60236840225A6023685D6801206D
:1013600002F0F4F923685D60236800259D6023681E
:10137000DD602268936923F0BE031B041B0C43F05D
:101380008003936123689E69012002F0DFF92368DE
:101390009E612368DD612368DD69012002F0D6F9D2
:1013A0002368DD61216841F218054B59194A1A403A
:1013B000194B13434B5123685E59012002F0C6F9C3
:1013C00023685E51236803F58053144A1A6023682A
:1013D00003F580531D68012002F0B8F9236803F576
:1013E00080531D60A369012B09D06269002120464A
:1013F000FFF764FF1EB070BD0023079396E72168D6
:1014000041F21C028858064B03438B50EDE700BFA6
:101410000F8120FF233FDEF8040020028020C1025C
:101420004000010010B582B0044600230193026819
:10143000136843F00803136003681B6801930120DD
:1014400002F084F92368019A1A6002B010BD10B549
:1014500082B00446002301930268136843F004033A
:10146000136003681B680193012002F06FF9236881
:10147000019A1A6002B010BD30B583B00546002352
:101480000193026841F21804135943F48013135175
:1014900003681B590193012002F058F92B68019A47
:1014A0001A5103B030BDF0B490F84540012C31D052
:1014B000012480F84540022480F84440C1620024A1
:1014C00001E0F96001349C4217D265014F194FF4D5
:1014D00080164E5140F2F45606FB0426BE60C669E3
:1014E0001EB94E5946F440064E515D1EAC42E8D23C
:1014F000651C01EB4515FD60E4E7026841F210034D
:10150000D150012380F84430002380F8453018463C
:10151000F0BC70470220FBE7F0B490F84540012C86
:101520002ED0012480F84540022480F84440816296
:10153000002401E0E96001349C4214D266018D1957
:101540004FF000478F5144F2F4566E6040F2F4566B
:1015500006FB0426AE605E1EB442EBD2661C01EBB5
:101560004616EE60E7E7026841F20C03D150012312
:1015700080F84430002380F845301846F0BC7047AE
:101580000220FBE790F84530012B00F08780012313
:1015900080F84530022380F8443099B1C36A1A6854
:1015A000002A17DB30B440F2F45291421AD93C4C75
:1015B000A4FB0124A40A40F2F45202FB141292B1DB
:1015C000013410E0012380F84430002280F84520E7
:1015D00018467047122380F84430002380F84530C5
:1015E000012070470124012C01D0002337E01A6844
:1015F00042F040521A60C36AC1F30C015960C26ADA
:10160000136843F000431360C36ADB68C362036876
:1016100041F214029A5812F0040F08D0042141F24A
:10162000140299500268002141F20403D1500123B1
:1016300080F84430002380F84530184630BC7047AD
:10164000C56A2A6842F080522A6011E0C56A2A6899
:1016500042F000422A60C26AD268C26201339C42F0
:10166000D5D9C56A2A6822F040522A60002BE7D0FB
:10167000C26A40F2F4555560621E9342E6D1C56AD3
:101680002A6842F000522A60064A02FB041202F263
:10169000F452C56AC2F30C026A60D7E702207047B1
:1016A0000BB002AC0CFAFFFF90F84530012B45D08F
:1016B000012380F84530022380F8443000210AE0FD
:1016C000036301228263DB68836204E0826B013280
:1016D0008263DB688362836A1A68002A26DB032937
:1016E00024D801311A6802F44072B2F5007FE7D0C5
:1016F0001A6812F4407FE9D04363826B013282633F
:10170000012A11D01A68C2F30D42043AC263026B77
:1017100092680264DB688362012380F8443000230E
:1017200080F84530184670470363EBE7012380F8E3
:101730004430002280F84520184670470220704748
:101740007047704710B50446036841F214029A5876
:1017500012F0400F11D141F214029B5813F0010F07
:1017600019D1226841F214034FF48031D15022681C
:10177000D35813F4004F1BD110BDFFF769FB22684B
:10178000402141F21403D150012384F84430002356
:1017900084F84530E5E7FFF7D3FF2168012341F2E4
:1017A00014028B5084F84430002384F84530D8E785
:1017B0002046FFF7C6FF22684FF4004141F21403B0
:1017C000D150012384F84430002384F84530D3E716
:1017D000F8B590F84430DBB2822B01D10220F8BD7D
:1017E00016460546822380F844300268146904F0E6
:1017F0001C04038ADB029BB21C43890101F4F861DB
:101800000C4344F00104146101F09AFF074614F000
:10181000010F10D001F094FFC01BB0F5803F02D241
:101820002B681C69F3E7012385F84430002385F811
:1018300045300320F8BD2B685B699BB23360012300
:1018400085F844300020F8BD90F84430DBB2422BDC
:1018500001D10220704770B50546422380F844301C
:101860000068046904F01C042B8ADB029BB21C4351
:10187000890101F4F8610C4344F0030492B242611F
:101880002B681C6101F05CFF064614F0010F10D0BC
:1018900001F056FF801BB0F5803F02D22B681C6917
:1018A000F3E7012385F84430002385F84530032011
:1018B00070BD012385F84430002070BD70B582B042
:1018C00000230193002800F00C81044690F8443076
:1018D000002B32D0844B5A6C42F480425A645B6CC9
:1018E00003F480430093009B804B5A6822F400026B
:1018F0005A605A68216A0A435A60236803F5805384
:101900001A6842F001021A6001F01AFF05462368C6
:1019100003F58052126812F0010F13D001F010FF8E
:10192000401BB0F5FA7FF2D9032584F84450002318
:1019300084F84530284602B070BD80F84530FFF786
:1019400021FAC7E71D6925F01C0501F0D3FA684BA1
:101950000344684A934255D845F0080523681D6141
:101960004FF4004200212046FFF76EFF0546002895
:1019700060D1FF2001F0EAFE6368002B00F0918047
:1019800001F0DEFE064601AA01212046FFF720FFF6
:1019900001F0D6FE801B41F28833984252D8019B59
:1019A00013F0040FEFD04FF4805200212046FFF7D0
:1019B0004BFF002852D101F0C3FE064601AA0121C7
:1019C0002046FFF705FF01F0BBFE801B41F2883384
:1019D00098424BD8019B13F0200FEFD001AA1021A1
:1019E0002046FFF7F5FE00284CD1019B13F0040FB1
:1019F00050D04FF40062E26013F0020F4DD000238C
:101A0000A3605EE03C4B03443C4A934202D845F05D
:101A10000C05A3E73A4B03443A4A93429ED93A4B0A
:101A200003443A4A934202D845F0040596E745F04C
:101A3000100593E701212046FFF768FC012584F893
:101A4000445077E701212046FFF760FC012384F82A
:101A50004430002384F8453003256BE701212046FC
:101A6000FFF754FC012584F8445063E70121204628
:101A7000FFF74CFC012384F84430002384F8453000
:101A8000032557E701212046FFF740FC012584F894
:101A900044504FE70022E260AEE74FF48043A3607A
:101AA0000FE0E368C3F3CF02A368C3F34F031A4305
:101AB00000212046FFF7C8FE58B940F6FF7001F03C
:101AC00045FE00212046FFF721FC012384F8443025
:101AD00030E701212046FFF719FC012584F8445026
:101AE00028E7012526E700BF003802400038014002
:101AF00000D3CEFEBFE1E40040F1E9FD3F787D0177
:101B000000796CFCFF596202001F0AFA7FF0FA02AA
:101B100038B590F84530012B01D1022038BD04467C
:101B2000012580F84550022380F84430FFF77AFC05
:101B30002046FFF78CFC2046FFF79EFC2046FFF76F
:101B4000D5FB2046FFF7DAFB84F84450002084F8E8
:101B5000450038BD0649CB6823F4E0631B041B0C29
:101B6000000200F4E0600343024A1A43CA6070476F
:101B700000ED00E00000FA0530B4144BDB68C3F35D
:101B80000223C3F10704042C28BF04241D1D062DC5
:101B900013D9033B012505FA04F4013C2140994087
:101BA00005FA03F3013B13401943002807DB090141
:101BB000C9B2074B195430BC70470023EAE700F064
:101BC0000F000901C9B2034B1954F4E700ED00E01E
:101BD00000E400E014ED00E0420900F01F000123E2
:101BE00003FA00F0014B43F82200704700E100E0E7
:101BF0000138B0F1807F0AD2064B5860F021064AC6
:101C000082F823100020986007221A607047012094
:101C1000704700BF10E000E000ED00E0042805D0B0
:101C2000054A136823F0040313607047024A1368DF
:101C300043F004031360704710E000E0704702684F
:101C4000D36843F00103D3600268136843F00103D3
:101C5000136000207047704770477047704710B599
:101C6000044603681A6912F0020F11D0DA6812F004
:101C7000020F0DD06FF002021A610123037703688F
:101C80009B6913F0030F79D0FFF7E6FF002323775A
:101C900023681A6912F0040F12D0DA6812F0040FE8
:101CA0000ED06FF004021A610223237723689B6928
:101CB00013F4407F68D02046FFF7CEFF0023237740
:101CC00023681A6912F0080F12D0DA6812F0080FB0
:101CD0000ED06FF008021A61042323772368DB69B2
:101CE00013F0030F57D02046FFF7B6FF00232377EA
:101CF00023681A6912F0100F12D0DA6812F0100F70
:101D00000ED06FF010021A61082323772368DB6975
:101D100013F4407F46D02046FFF79EFF0023237731
:101D200023681A6912F0010F03D0DA6812F0010F6C
:101D30003FD123681A6912F0800F03D0DA6812F0DD
:101D4000800F3DD123681A6912F4807F03D0DA68CE
:101D500012F0800F3BD123681A6912F0400F03D0B4
:101D6000DA6812F0400F39D123681A6912F0200F97
:101D700003D0DA6812F0200F37D110BDFFF76BFFE8
:101D80002046FFF76AFF81E72046FFF764FF204601
:101D9000FFF763FF92E72046FFF75DFF2046FFF75E
:101DA0005CFFA3E72046FFF756FF2046FFF755FFED
:101DB000B4E76FF001021A612046FEF7F3FCB8E7C2
:101DC0006FF080021A61204600F0D0F8BAE76FF099
:101DD00080021A61204600F0C9F8BCE76FF04002AB
:101DE0001A612046FFF73AFFBEE76FF020021A6142
:101DF000204600F0BAF8C0E770B40368474A904242
:101E000014BF00220122B0F1804F14BF144642F0EB
:101E10000104D4B9424DA84214BF00250125414E0A
:101E2000B04254D0002D52D105F1804505F58235E0
:101E3000A84214BF0025012506F50066B04202D075
:101E40000DB9002502E0012500E001251DB123F0B8
:101E500070034D682B43002C3DD1314CA04214BF80
:101E6000002401242F4DA84250D0002C4ED104F163
:101E7000804404F58234A04214BF0024012405F5F7
:101E80000065A84244D0002C42D1274CA04214BF88
:101E90000024012405F59A35A8423BD0002C39D105
:101EA000224CA04214BF0024012405F50065A8427D
:101EB00032D0002C30D11E4CA04214BF002401248B
:101EC000A5F59635A84204D01CB9002404E00125EC
:101ED000BCE7012400E001241CB123F44073CC686A
:101EE000234323F080034C69234303608B68C36260
:101EF0000B6883620F4B984208BF42F001020AB19F
:101F00000B6903630123436170BC70470124E3E75D
:101F10000124E1E70124DFE70124DDE700000140BF
:101F20000008004000040040004401400018004048
:101F30000020004000040140A8B110B5044690F80C
:101F40003D305BB1022384F83D30211D2068FFF74E
:101F500053FF012384F83D30002010BD80F83C3051
:101F6000FFF76CFEEEE701207047704770472DE9E0
:101F7000F04105460F4616469846069C2B68DB69DD
:101F800037EA03030CBF01230023B3421ED1B4F18F
:101F9000FF3FF3D02CB101F0D3FBA0EB080084424B
:101FA000ECD82A68136823F4D07313602A68936806
:101FB00023F001039360202385F8693085F86A30A7
:101FC000002385F868300320BDE8F0810020BDE8DB
:101FD000F081000038B50446836802691343426902
:101FE0001343C269134301680868A04A02401343BF
:101FF0000B602268536823F44053E1680B4353603D
:10200000A369226A134321688A6822F43062134369
:102010008B602568964B9D422BD0964B9D423CD0C1
:10202000954B9D4252D0954B9D4267D0944B9D421B
:102030007CD0944B9D4200F09480934B9D4200F0E5
:10204000AB80924B9D4200F0C2801023E269B2F552
:10205000004F00F0DB80082B00F26881DFE813F00E
:1020600031013C01470166015101660166016601CB
:102070005C0103F59433D3F8903003F00303032B92
:1020800003D8DFE803F0BF0604081023DEE70223CD
:10209000DCE70423DAE70823D8E703F5FA33D3F8BB
:1020A000903003F00C030C2B08D8DFE803F0AD07E9
:1020B00007070B070707090707070D001023C5E7E8
:1020C0000223C3E70423C1E70823BFE703F5F8337E
:1020D000D3F8903003F03003102B0DD005D9202B0E
:1020E00008D0302B04D10823B0E70BB90023ADE7AB
:1020F0001023ABE70223A9E70423A7E703F5F63390
:10210000D3F8903003F0C003402B0DD005D9802BBD
:1021100008D0C02B04D1082398E70BB9002395E71A
:10212000102393E7022391E704238FE703F5F433A9
:10213000D3F8903003F44073B3F5807F0FD007D904
:10214000B3F5007F09D0B3F5407F04D108237DE7C4
:102150000BB900237AE7102378E7022376E70423FC
:1021600074E703F59233D3F8903003F44063B3F58A
:10217000806F0FD007D9B3F5006F09D0B3F5406F6A
:1021800004D1082362E70BB901235FE710235DE761
:1021900002235BE7042359E703F5E033D3F89030DB
:1021A00003F44053B3F5805F0FD007D9B3F5005F58
:1021B00009D0B3F5405F04D1082347E70BB90023EA
:1021C00044E7102342E7022340E704233EE703F5F8
:1021D000DE33D3F8903003F44043B3F5804F0FD093
:1021E00007D9B3F5004F09D0B3F5404F04D1082308
:1021F0002CE70BB9002329E7102327E7022325E763
:10220000042323E7012321E700231FE7082B55D8E8
:10221000DFE803F005172254405454544B0000F0FB
:102220006FFE6268530803EB4003B3FBF2F39BB20B
:10223000002023F00F02C3F3420313432268D3604C
:1022400038BD00F06DFE6268530803EB4003B3FB3A
:10225000F2F39BB20020ECE762680D4B03EB5203F4
:10226000B3FBF2F39BB20020E3E700BFF369FFEF9B
:10227000001001400044004000480040004C004075
:10228000005000400014014000780040007C0040F5
:102290000048E80100F012FD6268530803EB4003B8
:1022A000B3FBF2F39BB20020C3E76268530803F567
:1022B0008033B3FBF2F39BB20020BAE70120002386
:1022C000B7E700F01DFE636800EB5300B0FBF3F0CE
:1022D00080B2E860002038BD00F022FE636800EBA9
:1022E0005300B0FBF3F080B2E860002038BD6268B4
:1022F0000F4B03EB5203B3FBF2F39BB2EB600020F6
:1023000038BD00F0DBFC636800EB5300B0FBF3F07A
:1023100080B2E860002038BD6268530803F50043CE
:10232000B3FBF2F39BB2EB60002038BD012038BD57
:102330000024F400436A13F0010F06D002685368CA
:1023400023F40033816A0B435360436A13F0020F96
:1023500006D00268536823F48033C16A0B4353608C
:10236000436A13F0040F06D00268536823F48023F5
:10237000016B0B435360436A13F0080F06D00268E9
:10238000536823F40043416B0B435360436A13F0DB
:10239000100F06D00268936823F48053816B0B43BF
:1023A0009360436A13F0200F06D00268936823F409
:1023B0000053C16B0B439360436A13F0400F0AD084
:1023C0000268536823F48013016C0B435360036C61
:1023D000B3F5801F0BD0436A13F0800F06D002685C
:1023E000536823F40023816C0B43536070470268E9
:1023F000536823F4C003416C0B435360EBE710B503
:1024000082B004460023C36601F09AF9226812687C
:1024100012F0080F09D1202384F8693084F86A305B
:10242000002084F8680002B010BD6FF07E43009376
:10243000034600224FF400112046FFF798FD0028C4
:10244000E9D00320EFE778B310B5044690F869307F
:102450000BB3242384F869302268136823F0010346
:1024600013602046FFF7B6FD01281FD0636ABBB991
:102470002268536823F4904353602268936823F0E2
:102480002A0393602268136843F001031360204617
:10249000FFF7B5FF10BD80F86830FEF7C9FDD8E73B
:1024A0002046FFF747FFE3E70120704710BD0028F3
:1024B0007DD0F0B58BB0044690F8BD33E3B1032373
:1024C00084F8BD33206800F0E5F8254655F8107B08
:1024D0006E460FCD0FC60FCD0FC695E8030086E8F8
:1024E0000300231D0ECB384600F096F8002120682B
:1024F00000F0D6F800231AE080F8BC33FEF7C0FDE8
:10250000DDE7D900C81A82002244012082F83D008C
:1025100082F83C30A2F84230002082F83F0050643C
:102520009064CA1A9100214408650133DBB20E2B76
:10253000E7D9002315E0D800C11A8A0022440021FF
:1025400082F8FD1182F8FC3182F8FF11C2F8041202
:10255000C2F80812C21A90002044C0F810120133C9
:10256000DBB20E2BE7D9254655F8107B6E460FCD12
:102570000FC60FCD0FC695E8030086E80300231DA4
:102580000ECB384600F0D2F8002384F8383001230F
:1025900084F8BD33636A012B05D0206800F098F9F8
:1025A00000200BB0F0BD204600F004F8F5E7012054
:1025B00070470000024603680121C0F8F8130020AC
:1025C00082F8F0039A6942F000629A61596D024AFA
:1025D0000A435A65704700BF03000010002301330F
:1025E0000C4A934211D80269002AF8DA036943F0D1
:1025F0000103036100230133064A934207D80269AD
:1026000012F0010FF7D1002070470320704703201C
:10261000704700BF400D030084B010B5044603A806
:1026200080E80E00089B012B11D0E36843F04003C3
:10263000E3602046FFF7D2FF4FF48033A363069B8D
:10264000012B1CD00020BDE8104004B07047A36BE4
:1026500023F48033A363E2680D4B1340E360E36827
:1026600023F44013E3600F9B012B03D02046FFF7B8
:10267000B5FFE4E7E36843F48013E360F6E7A3689B
:1026800043F00603A360A36843F02003A360D9E7E7
:10269000BFFFBDFF836823F0010383600020704704
:1026A00008B5C36823F0C043C360012909D069B9E4
:1026B000C36843F08043C360322001F047F8002034
:1026C00008BDC36843F00053C360F5E7012008BDAF
:1026D000890141F02001016100230133054A934241
:1026E00005D8026912F0200FF7D1002070470320AF
:1026F000704700BF400D0300102303610023013326
:10270000054A934205D8026912F0100FF7D1002054
:1027100070470320704700BF400D0300D0F8003819
:102720001943C0F8001800207047000084B0F8B5C5
:10273000044607A880E80E002546002306E003F1C2
:10274000400204EB82020021516001330E2BF6D9C6
:10275000A36B43F40013A363119F5FB9A36B23F42E
:102760000013A363236843F040032360236843F00E
:10277000800323600023C4F8003E04F50066D4F80B
:102780000038C4F800380C9B012B11D0032B1BD050
:1027900003212046FFF7C2FF10212046FFF798FFD4
:1027A0002046FFF7A9FF002333617361F36122E044
:1027B000099B23B900212046FFF7B0FFECE7012178
:1027C0002046FFF7ABFFE7E7099B23B9002120462E
:1027D000FFF7A4FFE0E701212046FFF79FFFDBE7BB
:1027E000C3B94FF00060C2F8000900220A614FF639
:1027F0007F328A60013307998B4210D205EB431276
:1028000002F51061D2F800090028E9DB0020C2F8C7
:102810000009EAE74FF09040C2F80009E5E700231D
:102820000AE0CBB14FF0904EC2F800EB00220261FB
:102830004FF67F32826001338B4212D205EB431296
:1028400002F53060D2F800EBBEF1000FE9DB4FF08B
:10285000000EC2F800EBE9E74FF0006EC2F800EBA3
:10286000E4E7336923F4807333610A9B012B1AD0A8
:102870000022A2616FF0804262611BB9A36943F03C
:102880001003A361A2690E4B1343A3610D9B1BB1FF
:10289000A36943F00803A361012F0BD00020BDE81A
:1028A000F84004B07047074A3263316B064A0A4366
:1028B0003263DDE7A269054B1343A361EEE700BF76
:1028C00000383C800001800003000100040000404B
:1028D00008B5D0F8043843F00203C0F804380320E8
:1028E00000F034FF002008BD002800F0DB8170B547
:1028F00082B00446036813F0010F3AD0A24B9B68E4
:1029000003F00C03042B2BD09F4B9B6803F00C03AC
:10291000082B20D06368B3F5803F50D0002B54D1F2
:10292000994B1A6822F480321A601A6822F48022C5
:102930001A606368002B5FD000F002FF0546924BDF
:102940001B6813F4003F14D100F0FAFE401B64280A
:10295000F5D90320ABE18C4B5B6813F4800FD9D021
:10296000894B1B6813F4003F03D06368002B00F011
:102970009B81236813F0020F64D0834B9B6813F094
:102980000C0F4DD0804B9B6803F00C03082B42D0FA
:10299000E368002B79D07C4A136843F0010313608D
:1029A00000F0CEFE0546784B1B6813F0020F63D192
:1029B00000F0C6FE401B0228F5D9032077E1724AD9
:1029C000136843F480331360B3E7B3F5A02F09D045
:1029D0006D4B1A6822F480321A601A6822F4802241
:1029E0001A60A6E7684B1A6842F480221A601A68D7
:1029F00042F480321A609CE700F0A2FE0546624B6A
:102A00001B6813F4003FB4D000F09AFE401B64280A
:102A1000F5D903204BE15C4B5B6813F4800FB7D111
:102A2000594B1B6813F0020F04D0E368012B01D04F
:102A300001203CE1544A136823F0F803216943EA7A
:102A4000C1031360236813F0080F46D0636983B392
:102A50004D4A536F43F00103536700F071FE054682
:102A6000494B5B6F13F0020F37D100F069FE401B3A
:102A70000228F5D903201AE1434A136823F0F8032A
:102A8000216943EAC1031360DCE73F4A136823F07E
:102A90000103136000F054FE05463B4B1B6813F026
:102AA000020FCFD000F04CFE401B0228F5D90320C6
:102AB000FDE0354A536F23F00103536700F040FEF9
:102AC0000546314B5B6F13F0020F06D000F038FE65
:102AD000401B0228F5D90320E9E0236813F0040F16
:102AE0007ED0294B1B6C13F0805F31D1264B1A6CC2
:102AF00042F080521A641B6C03F080530193019BD7
:102B00000125224B1B6813F4807F23D0A368012B7F
:102B100034D0002B3CD11C4B1A6F22F001021A67F3
:102B20001A6F22F004021A67A368002B46D000F047
:102B300007FE0646144B1B6F13F0020F4FD100F037
:102B4000FFFD801B41F288339842F3D90320AEE0A9
:102B50000025D6E70D4A136843F48073136000F034
:102B6000EFFD0646094B1B6813F4807FCED100F0C1
:102B7000E7FD801B6428F5D9032098E0024A136F13
:102B800043F001031367CFE70038024000700040B4
:102B9000052B09D0484B1A6F22F001021A671A6FF1
:102BA00022F004021A67BFE7434B1A6F42F0040297
:102BB0001A671A6F42F001021A67B5E700F0C0FD0C
:102BC00006463D4B1B6F13F0020F08D000F0B8FD16
:102BD000801B41F288339842F3D9032067E0F5B9AE
:102BE000A369002B62D0344A926802F00C02082AD2
:102BF0005FD0022B19D0304A136823F08073136022
:102C000000F09EFD04462C4B1B6813F0007F47D05C
:102C100000F096FD001B0228F5D9032047E0264A64
:102C2000136C23F080531364DAE7234A136823F00C
:102C30008073136000F084FD05461F4B1B6813F082
:102C4000007F06D000F07CFD401B0228F5D9032050
:102C50002DE0E369226A1343626A43EA8213A26A9F
:102C60005208013A43EA0243E26A43EA026343F04C
:102C70000053114A5360136843F08073136000F0EF
:102C80005FFD04460C4B1B6813F0007F06D100F07B
:102C900057FD001B0228F5D9032008E0002006E0BC
:102CA000002004E001207047012000E0002002B075
:102CB00070BD0120FBE700BF00380240F8B5314B82
:102CC0009B6803F00C03042B59D0082B01D02E482D
:102CD000F8BD2C4B5A6802F03F025B6813F4800F7A
:102CE0002AD0284B5B68C3F388131E4600275C017B
:102CF0000025E41A65EB0705A90141EA9461A001EA
:102D0000001B61EB0501CB0043EA5073C400A0191E
:102D100043EB07014B0243EAD053440220461946D5
:102D20000023FDF7E5FA174B5B68C3F3014301335A
:102D30005B00B0FBF3F0F8BD124B5B68C3F3881384
:102D40001E4600275C010025E41A65EB0705A90172
:102D500041EA9461A001001B61EB0501CB0043EA4D
:102D60005073C400A01943EB07018B0243EA905350
:102D70008402204619460023FDF7BAFAD3E7034838
:102D8000F8BD00BF003802400024F40000127A00B1
:102D9000002800F0A28070B50446524B1B6803F077
:102DA0000F038B420CD24F4A136823F00F030B43DF
:102DB0001360136803F00F03994201D0012070BD26
:102DC000236813F0020F17D013F0040F04D0464A03
:102DD000936843F4E0539360236813F0080F04D022
:102DE000414A936843F4604393603F4A936823F0F9
:102DF000F003A068034393600D46236813F0010FAE
:102E000031D06368012B20D0022B25D0364A1268BE
:102E100012F0020F63D034498A6822F00302134390
:102E20008B6000F08DFC06462F4B9B6803F00C0373
:102E30006268B3EB820F16D000F082FC801B41F277
:102E400088339842F0D9032070BD274A126812F4E3
:102E5000003FE0D1012070BD234A126812F0007FCC
:102E6000D9D1012070BD1F4B1B6803F00F039D4299
:102E70000CD21C4A136823F00F032B431360136812
:102E800003F00F039D4201D0012070BD236813F0B1
:102E9000040F06D0144A936823F4E053E1680B430F
:102EA0009360236813F0080F07D00F4A936823F448
:102EB0006043216943EAC1039360FFF7FFFE0A4BB9
:102EC0009B68C3F30313094AD35CD840084B1860CE
:102ED00000200AF059F8002070BD01207047012041
:102EE00070BD00BF003C0240003802408CE3000887
:102EF00004000020014B1868704700BF0400002048
:102F000008B5FFF7F7FF044B9B68C3F38223034A1E
:102F1000D35CD84008BD00BF003802409CE30008E5
:102F200008B5FFF7E7FF044B9B68C3F34233034A3E
:102F3000D35CD84008BD00BF003802409CE30008C5
:102F40000F2303600B4B9A6802F0030242609A68F9
:102F500002F0F00282609A6802F4E052C2609B685C
:102F6000DB0803F4E0530361034B1B6803F00F031A
:102F70000B60704700380240003C0240F0B583B05F
:102F80000446036813F0010F0CD0AF4B9A6822F48B
:102F900000029A609A68416B0A439A60436BC3B11E
:102FA000002700E00027236813F4002F15D0A64A5D
:102FB000D2F88C3023F44013E16B0B43C2F88C3011
:102FC000E36BB3F5801F06D0002B00F01B810025BA
:102FD00004E00127E7E70127F6E70025236813F45B
:102FE000801F0FD0984AD2F88C3023F44003216C14
:102FF0000B43C2F88C30236CB3F5800F00F00481D2
:1030000003B90125236813F0807F00D0012713F056
:10301000200F40F0FB80236813F0100F0CD08A4B78
:10302000D3F88C2022F08072C3F88C20D3F88C2047
:10303000A16B0A43C3F88C20236813F4804F08D097
:10304000814AD2F8903023F44033616E0B43C2F8CA
:103050009030236813F4004F08D07B4AD2F89030A8
:1030600023F44023A16E0B43C2F89030236813F47D
:10307000803F08D0744AD2F8903023F44013E16EB8
:103080000B43C2F89030236813F4003F08D06E4A17
:10309000D2F8903023F44003216F0B43C2F89030F4
:1030A000236813F0400F08D0674AD2F8903023F01D
:1030B0000303616C0B43C2F89030236813F0800F58
:1030C00008D0614AD2F8903023F00C03A16C0B4376
:1030D000C2F89030236813F4807F08D05A4AD2F89F
:1030E000903023F03003E16C0B43C2F8903023683A
:1030F00013F4007F08D0544AD2F8903023F0C00374
:10310000216D0B43C2F89030236813F4806F08D010
:103110004D4AD2F8903023F44073616D0B43C2F8EE
:103120009030236813F4006F08D0474AD2F89030EB
:1031300023F44063A16D0B43C2F89030236813F46D
:10314000805F08D0404AD2F8903023F44053E16DBC
:103150000B43C2F89030236813F4005F08D03A4A5A
:10316000D2F8903023F44043216E0B43C2F89030E4
:10317000236813F4800F08D0334AD2F8903023F03C
:103180008063A16F0B43C2F89030236813F4001FD3
:103190000DD02D4AD2F8903023F00063E16F0B433D
:1031A000C2F89030E36FB3F1006F00F099802368AC
:1031B00013F0080F00D0012513F4802F08D0224A05
:1031C000D2F8903023F04073616F0B43C2F8903017
:1031D000236813F4000F09D01B4AD2F8903023F073
:1031E0008053D4F880100B43C2F89030002F79D16F
:1031F0002368B3F1007F75D0002D40F007810020D7
:1032000003B0F0BD0125E9E60127F9E60E4B1A6C83
:1032100042F080521A641B6C03F080530193019BAF
:103220000A4A136843F48073136000F089FA064673
:10323000064B1B6813F4807F0AD100F081FA801BD3
:103240006428F5D90320DBE7003802400070004015
:10325000B34B1B6F13F4407315D0226B02F4407212
:10326000934210D0AE4B1A6F22F44072196F41F4A2
:1032700080311967196F21F4803119671A671B6F44
:1032800013F0010F12D1236B03F44072B2F5407FAB
:103290001DD0A34A936823F4F8139360A0490B6FE1
:1032A000226BC2F30B0213430B67B4E600F048FA3B
:1032B00006469B4B1B6F13F0020FE4D100F040FA5F
:1032C000801B41F288339842F3D9032098E7944851
:1032D000826822F4F812934919400A438260DDE7BC
:1032E000012564E78E4A136823F08063136000F0C1
:1032F00027FA06468A4B1B6813F0006F06D000F0D1
:103300001FFA801B6428F5D9032079E7236813F09E
:10331000010F13D0636B8BB9814AD2F88430D2F895
:103320008410606803F4403343EA801301F0706155
:103330000B43A16843EA0173C2F88430236813F495
:10334000002F03D0E26BB2F5801F43D013F4801F2F
:1033500003D0236CB3F5800F3CD0236813F0807F3B
:1033600011D06F4AD2F88400D2F8841066682369BD
:103370001B0443EA861300F07060034301F0E04150
:103380000B43C2F88430236813F0007F0DD06268CD
:1033900023691B0443EA8213E26843EA0263A268DA
:1033A00043EA02735E4AC2F884305D4A136843F010
:1033B0008063136000F0C4F90646594B1B6813F094
:1033C000006F7FF419AF00F0BBF9801B6428F4D9BB
:1033D000032015E7524AD2F88430D2F8841060688E
:1033E00003F4403343EA8013E06843EA006301F0EA
:1033F000E0410B43C2F88430D2F88C3023F01F0335
:10340000616A01390B43C2F88C30A6E7444A13685D
:1034100023F08053136000F093F90546404B1B687E
:1034200013F0005F06D000F08BF9401B6428F5D93B
:103430000320E5E6236813F4002F01D0E26B22B1EC
:1034400013F4801F1DD0236CDBB9354AD2F88830C5
:10345000D2F88810606903F4403343EA8013A0690E
:1034600043EA006301F0E0410B43C2F88830D2F830
:103470008C3023F4F853A16A013943EA0123C2F8DE
:103480008C30236813F4001F03D0E36FB3F1006F97
:1034900031D0236813F0080F19D0214AD2F88810D0
:1034A000D2F88830606903F4403343EA801301F0B6
:1034B00070610B43E16943EA0173C2F88830D2F8C6
:1034C0008C3023F44033E16A0B43C2F88C30144A49
:1034D000136843F08053136000F032F90446104B38
:1034E0001B6813F0005F19D100F02AF9001B642853
:1034F000F5D9032084E60A4AD2F88800D2F8881069
:103500006569236A1B0443EA851300F07060034376
:1035100001F0E0410B43C2F88830BAE700206FE6C3
:1035200000380240FFFCFF0FF0B583B0002437E005
:10353000092600E0002606FA0EF6324302336C4EEE
:1035400046F823206B4B1A68EB4302EA03064F68E8
:1035500017F4803F01D045EA0206664A16605268B9
:1035600003EA02064F6817F4003F01D045EA02065D
:10357000604A5660926803EA02064F6817F4801F9B
:1035800001D045EA02065B4A9660D26813404E6855
:1035900016F4001F01D045EA0203564AD3600134F5
:1035A0000F2C00F2A3800123A3400A6803EA02055E
:1035B000AB42F4D14A68122A18BF022A12D14FEA4C
:1035C000D40E0EF1080E50F82E2004F00706B600B7
:1035D0000F27B74022EA07020F6907FA06F63243BF
:1035E00040F82E2006684FEA440E032202FA0EF23B
:1035F000D24316404F6807F0030707FA0EF73E4321
:1036000006604E68771E112E18BF012F01D9122EA9
:103610000FD186681640CF6807FA0EF73E438660E2
:10362000466826EA03034E68C6F30016A6403343F5
:103630004360C3681A408B6803FA0EF31A43C260F2
:103640004B6813F0805FAAD02B4B5A6C42F4804237
:103650005A645B6C03F480430193019BA3089E1C96
:10366000234A52F8262004F003064FEA860E0F265E
:1036700006FA0EF622EA0602204FB8423FF45AAF8D
:103680001F4EB04222D006F58066B04220D006F52B
:103690008066B0421ED006F58066B0421CD006F5AA
:1036A0008066B0421AD006F58066B04218D006F5A2
:1036B0008066B04216D006F58066B04214D006F59A
:1036C0008066B0423FF434AF0A2634E7012632E781
:1036D000022630E703262EE704262CE705262AE7F4
:1036E000062628E7072626E7082624E703B0F0BDCC
:1036F00000380140003C0140003802400000024018
:103700000004024012B90904816170478161704769
:1037100008B50320FEF71EFA002009F035FCFDF77E
:103720002FFC002008BD0000034A1168034B1B78E2
:103730000B441360704700BFE479002000000020B4
:10374000014B1868704700BFE479002038B5044683
:10375000FFF7F6FF0546B4F1FF3F02D0044B1B789C
:103760001C44FFF7EDFF401B8442FAD838BD00BF70
:103770000000002010B40F4AD2F8883043F47003E0
:10378000C2F888300C4B196841F001011960002023
:1037900098601C68094921401960094959601968F5
:1037A00021F480211960D8604FF0006393605DF8C8
:1037B000044B704700ED00E000380240FFFFF6FECA
:1037C00010300024124A12F0070F1ED0D11D21F034
:1037D0000701C1F5705313440A460E4802600021E8
:1037E00041601344083B23F007030B480360596012
:1037F0001960991A51601360084B1960084B1960E1
:103800004FF00042074B1A6070474FF47053E4E7E3
:10381000A4000020B03C0020A0000020AC3C002010
:10382000A83C0020A43C002010B4134B1A6882422C
:103830001BD359685C18A04203D140680144596009
:10384000184641684418A24213D10C4C2468A24285
:103850000DD05268114441601A68126802609842A3
:1038600000D018605DF8044B70471346DEE7046033
:10387000F5E70260F3E700BFB03C0020A0000020A5
:1038800070B5044601F058F83D4B1B68CBB13D4B79
:103890001B681C4269D1BCB1083414F0070F13D067
:1038A00024F00704083404F007036BB14FF0500311
:1038B00072B683F31188BFF36F8FBFF34F8F62B679
:1038C000FEE7FFF77FFFE2E7002C50D02E4B1B688E
:1038D0009C424ED82D4B1D6801E02B4615466A6868
:1038E000944202D92A68002AF7D1254A12689542E3
:1038F00041D01E6808362A681A606B681B1B102BA3
:1039000012D9281910F0070F0AD04FF0500372B6E1
:1039100083F31188BFF36F8FBFF34F8F62B6FEE75B
:1039200043606C60FFF780FF6A6817490B689B1A59
:103930000B60174909688B4201D215490B60114B86
:103940001B6813436B6000232B6001F09DF816F099
:10395000070F12D04FF0500372B683F31188BFF3F4
:103960006F8FBFF34F8F62B6FEE70026EDE70026AC
:10397000EBE70026E9E70026E7E7304670BD00BF29
:10398000A0000020A43C0020A83C0020B03C002067
:10399000AC3C0020002834D038B50446A0F108051E
:1039A00050F8042C174909680A420AD14FF0500315
:1039B00072B683F31188BFF36F8FBFF34F8F62B678
:1039C000FEE750F8080C50B14FF0500372B683F385
:1039D0001188BFF36F8FBFF34F8F62B6FEE722EA05
:1039E000010244F8042C00F0A7FF54F8041C064A16
:1039F00013680B4413602846FFF716FF01F044F8E4
:103A000038BD7047A43C0020A83C00200D4B1B682B
:103A1000B3F1FF3F0AD04FF0500372B683F3118821
:103A2000BFF36F8FBFF34F8F62B6FEE74FF05003C7
:103A300072B683F31188BFF36F8FBFF34F8F62B6F7
:103A4000FEE700BF0800002006480068006880F319
:103A5000088862B661B6BFF34F8FBFF36F8F00DF88
:103A600000BF000008ED00E0DFF80C00016841F441
:103A7000700101607047000088ED00E04FF0807336
:103A800040F8043C21F0010140F8081C054B40F8C7
:103A90000C3C40F8202C6FF0020340F8243C4438E2
:103AA000704700BF0D3A0008000000000000000051
:103AB000074B19680868B0E8F04F80F30988BFF336
:103AC0006F8F4FF0000080F311887047AFF30080D4
:103AD000C03C00204FF0500372B683F31188BFF34F
:103AE0006F8FBFF34F8F62B60B4A136801331360B9
:103AF000012B0FD1094B1B6813F0FF0F0AD04FF0B9
:103B0000500372B683F31188BFF36F8FBFF34F8FEB
:103B100062B6FEE7704700BF0800002004ED00E039
:103B20000A4B1B6853B94FF0500372B683F31188E8
:103B3000BFF36F8FBFF34F8F62B6FEE7013B034ABF
:103B400013600BB983F31188704700BF0800002091
:103B5000EFF30980BFF36F8F154B1A681EF0100F3B
:103B600008BF20ED108A20E9F04F10604DF8043DA9
:103B70004FF0500072B680F31188BFF34F8FBFF340
:103B80006F8F62B601F06CF84FF0000080F311887F
:103B900008BC19680868B0E8F04F1EF0100F08BFA5
:103BA000B0EC108A80F30988BFF36F8F704700BFB5
:103BB000C03C002008B54FF0500372B683F3118863
:103BC000BFF36F8FBFF34F8F62B600F0CBFE18B11B
:103BD0004FF08052024B1A60002383F3118808BD16
:103BE00004ED00E0064B1B68064AA2FB03239B0979
:103BF000013B054A13600722044B1A60704700BF5F
:103C000004000020D34D621014E000E010E000E05A
:103C100000B583B0224B1A78D2B20192FF221A70FB
:103C20001B78DBB28DF803309DF8033003F05003AE
:103C30001C4A137007221C4B1A6009E01A4A1368C9
:103C4000013B13609DF803305B00DBB28DF803305D
:103C50009DF8033013F0800FF0D1134A13681B0254
:103C600003F4E0631360019BDBB20D4A13700F4B4A
:103C70001A6842F470021A601A6842F070421A60C0
:103C8000FFF7B0FF00220A4B1A60FFF7EDFE094A6A
:103C9000136843F040431360FFF7D6FEFFF7B6FE0C
:103CA00000E400E0B83C0020BC3C002020ED00E037
:103CB0000800002034EF00E0EFF305830F2B11D94B
:103CC000124A9B5CDBB2124A127893420AD24FF03E
:103CD000500372B683F31188BFF36F8FBFF34F8F1A
:103CE00062B6FEE70B4B1B6803F4E0630A4A1268F6
:103CF00093420AD94FF0500372B683F31188BFF391
:103D00006F8FBFF34F8F62B6FEE77047F0E300E0BE
:103D1000B83C00200CED00E0BC3C002000F10803A2
:103D200043604FF0FF328260C36003610023036091
:103D3000704700230361704743684B609A688A604C
:103D40009A685160996008610368013303607047A5
:103D500030B40D68B5F1FF3F02D000F1080202E077
:103D6000026904E01A4653681C68A542FAD25368F7
:103D70004B6099608A605160086103680133036099
:103D800030BC70470369426881689160826841680D
:103D900051605A68904205D00022026118680138CB
:103DA0001860704782685A60F6E710B50446FFF75E
:103DB00091FEA26BE36B9A4204D00024FFF7B0FEA1
:103DC000204610BD0124F9E710B50446FFF782FE36
:103DD000A36B23B10024FFF7A3FE204610BD0124EE
:103DE000F9E770B504461646856B026C4AB903685C
:103DF00053BB406801F0AAF8002363600135A56356
:103E000070BD6EB9806809F00AFB226CA368134488
:103E1000A3606268934219D32368A3600020EDE792
:103E2000C06809F0FCFA236C5B42E2681A44E26065
:103E300021688A4202D262681344E360022E07D1ED
:103E400045B1013D0020D9E70020D7E70020D5E7A4
:103E50000020D3E70020D1E7026C72B110B5034611
:103E6000C4681444C4604068844201D31868D860B0
:103E70000846D96809F0D3FA10BD704738B5054631
:103E8000FFF728FE95F8454064B201E0013C64B2BA
:103E9000002C0ADD6B6A43B105F1240000F04AFFF3
:103EA0000028F3D000F0EAFFF0E7FF2385F8453063
:103EB000FFF736FEFFF70EFE95F8444064B201E0CE
:103EC000013C64B2002C0ADD2B6943B105F11000FE
:103ED00000F030FF0028F3D000F0D0FFF0E7FF2320
:103EE00085F84430FFF71CFE38BD000038B530B30C
:103EF00004460D46FFF7EEFD2168E26B236C03FBE1
:103F0000021060600020A063A160013A02FB03136D
:103F1000E360FF2384F8443084F84530D5B9236941
:103F200003B304F1100000F005FFD8B14FF0805248
:103F30000E4B1A60BFF34F8FBFF36F8F12E04FF03D
:103F4000500372B683F31188BFF36F8FBFF34F8FA7
:103F500062B6FEE704F11000FFF7E0FE04F1240072
:103F6000FFF7DCFEFFF7DCFD012038BD04ED00E0CB
:103F700010B5029B0C4639B11A60D8631C6401214C
:103F80001846FFF7B3FF10BD1B60F6E750B94FF0BE
:103F9000500372B683F31188BFF36F8FBFF34F8F57
:103FA00062B6FEE7F0B583B0054611B101FB00F043
:103FB00000E0002017460C464830FFF761FC06463B
:103FC00038B100903B4600F1480221462846FFF7F1
:103FD000CFFF304603B0F0BDF0B585B0019270B1AF
:103FE0000446B9B10125DDB94FF0500372B683F331
:103FF0001188BFF36F8FBFF34F8F62B6FEE74FF0AC
:10400000500372B683F31188BFF36F8FBFF34F8FE6
:1040100062B6FEE7026C0AB90125E4E70025E2E793
:10402000022B0BD07DB94FF0500372B683F3118889
:10403000BFF36F8FBFF34F8F62B6FEE7E26B012ACB
:10404000F0D00025EEE71E460F4600F01DFF10B928
:10405000019B03B1002555B94FF0500372B683F3AD
:104060001188BFF36F8FBFF34F8F62B6FEE7002555
:104070002CE0324639462046FFF7B3FE636A8BB127
:1040800004F1240000F056FE38B14FF08052374B57
:104090001A60BFF34F8FBFF36F8FFFF741FD012011
:1040A00005B0F0BD0028F8D04FF080522F4B1A60B9
:1040B000BFF34F8FBFF36F8FEFE7FFF731FD0020A6
:1040C000EEE72046FFF7DAFE00F0DEFCFFF702FD28
:1040D000A26BE36B9A42CCD3022ECAD0019B002B79
:1040E000EBD01DB902A800F06DFE0125FFF718FD09
:1040F00000F022FCFFF7EEFC94F844305BB2B3F121
:10410000FF3F02D1002384F8443094F845305BB27D
:10411000B3F1FF3F02D1002384F84530FFF700FDE3
:1041200001A902A800F066FEC8B92046FFF73DFECF
:104130000028C6D0019904F1100000F0E1FD2046EE
:10414000FFF79CFE00F0A0FC0028BFD14FF080528A
:10415000064B1A60BFF34F8FBFF36F8FB6E7204651
:10416000FFF78CFE00F090FC002099E704ED00E0E2
:1041700048B108B5002141600160C1600B460A46A4
:10418000FFF72AFF08BD704710B502460021012045
:10419000FFF7FCFE0446FFF7EBFF204610BD2DE9BC
:1041A000F84370B10446B9B10120D8B94FF05003BB
:1041B00072B683F31188BFF36F8FBFF34F8F62B670
:1041C000FEE74FF0500372B683F31188BFF36F8F91
:1041D000BFF34F8F62B6FEE7006C08B90120E4E739
:1041E0000020E2E7022B0BD078B94FF0500372B6F3
:1041F00083F31188BFF36F8FBFF34F8F62B6FEE773
:10420000E56B012DF0D00020EEE71F469046894671
:10421000FFF752FDEFF311864FF0500372B683F3B0
:104220001188BFF36F8FBFF34F8F62B6A26BE36B42
:104230009A4201D3022F21D194F845506DB23A46EB
:1042400049462046FFF7CDFDB5F1FF3F10D1636A27
:10425000B3B104F1240000F06DFD98B1B8F1000F86
:1042600012D00120C8F8000086F31188BDE8F88359
:104270006B1C5BB284F845300120F5E70020F3E7C2
:104280000120F1E70120EFE70120EDE770B170B503
:104290000446036CABB14FF0500372B683F3118840
:1042A000BFF36F8FBFF34F8F62B6FEE74FF050033F
:1042B00072B683F31188BFF36F8FBFF34F8F62B66F
:1042C000FEE7036863B1012383B94FF0500372B670
:1042D00083F31188BFF36F8FBFF34F8F62B6FEE792
:1042E00043680BB90123EFE70023EDE70E46FFF724
:1042F000E3FCEFF311854FF0500372B683F311889E
:10430000BFF36F8FBFF34F8F62B6A26BE36B9A421E
:104310001AD294F845305BB20132A263B3F1FF3F89
:104320000CD1636A93B104F1240000F003FD78B16D
:1043300086B10120306085F3118870BD01335BB216
:1043400084F845300120F6E70020F4E70120F2E789
:104350000120F0E70120EEE72DE9F04184B0019261
:1043600070B10446B9B10125DDB94FF0500372B602
:1043700083F31188BFF36F8FBFF34F8F62B6FEE7F1
:104380004FF0500372B683F31188BFF36F8FBFF302
:104390004F8F62B6FEE7026C0AB90125E4E70025FB
:1043A000E2E71F46884600F06FFD10B9019B03B19C
:1043B000002555B94FF0500372B683F31188BFF34F
:1043C0006F8FBFF34F8F62B6FEE700265DE0E668B1
:1043D00041462046FFF740FDDFB9013DA563236854
:1043E00013B900F011FE6060236963B104F110009D
:1043F00000F0A0FC38B14FF08052454B1A60BFF37B
:104400004F8FBFF36F8FFFF78BFB012004B0BDE828
:10441000F081E660636A002BF5D004F1240000F01F
:1044200089FC0028EFD04FF08052394B1A60BFF35F
:104430004F8FBFF36F8FE6E7FFF772FB0020E5E7D2
:1044400002A800F0BFFC012629E0002384F84430D4
:1044500031E0002384F8453033E0FFF73BFB606830
:1044600000F022FDFFF75CFB3BE02046FFF706FD76
:1044700000F00AFB09E02046FFF700FD00F004FB16
:104480002046FFF7A1FC002840D1FFF723FBA56BD6
:10449000002D9CD1019B002BCED0002ED0D0FFF759
:1044A0003FFB00F049FAFFF715FB94F844305BB28C
:1044B000B3F1FF3FC9D094F845305BB2B3F1FF3F91
:1044C000C7D0FFF72DFB01A902A800F093FC00283C
:1044D000D1D12046FFF778FC0028C6D02368002BF6
:1044E000BBD0019904F1240000F00AFC2046FFF73C
:1044F000C5FC00F0C9FA0028C7D14FF08052044B28
:104500001A60BFF34F8FBFF36F8FBEE700207DE7C8
:1045100004ED00E02DE9F84370B10446B9B1012380
:10452000DBB94FF0500372B683F31188BFF36F8F7E
:10453000BFF34F8F62B6FEE74FF0500372B683F3BE
:104540001188BFF36F8FBFF34F8F62B6FEE7036C26
:104550000BB90123E4E70023E2E717468946FFF79A
:10456000ABFBEFF311864FF0500372B683F3118863
:10457000BFF36F8FBFF34F8F62B6D4F83880B8F1B6
:10458000000F20D094F844506DB249462046FFF702
:1045900063FC08F1FF33A363B5F1FF3F0DD123693D
:1045A0009BB104F1100000F0C5FB80B18FB1012078
:1045B000386086F31188BDE8F8836B1C5BB284F821
:1045C00044300120F5E70020F3E70120F1E7012066
:1045D000EFE70120EDE700000A4B1B681B684BB9B1
:1045E00001234BB9074B1B68DB68DB685A68064B35
:1045F0001A6070470023F4E74FF0FF32024B1A6055
:10460000704700BFC43C00209C3D002010B504460C
:10461000006BFFF7BFF92046FFF7BCF910BD2DE98D
:10462000F04780469946089D099F0A9C266B6FF0CB
:104630004043134406EB830626F0070600230F2BA6
:1046400007D8C85CE21882F83400CA5C0AB10133AA
:10465000F5E7002384F84330062D00D90625E562EE
:1046600065644FF0000AC4F848A0201DFFF761FB05
:1046700004F11800FFF75DFB2461C5F10705A56192
:104680006462C4F84CA084F850A04A4641463046C3
:10469000FFF7F4F9206007B13C60BDE8F087000047
:1046A00038B5002407E004EB840293000E48184458
:1046B000FFF734FB0134062CF5D90C4D2846FFF7E3
:1046C0002DFB0B4C2046FFF729FB0A48FFF726FB82
:1046D0000948FFF723FB0948FFF720FB084B1D6043
:1046E000084B1C6038BD00BFCC3C0020703D002052
:1046F000843D0020A43D0020D03D0020BC3D002092
:10470000C43C0020C83C002010B50446FFF7E2F985
:10471000204A1368013313601F4B1B68002B31D0F4
:104720001E4B1B683BB91C4B1B68DA6AE36A9A4252
:1047300001D8194B1C601A4A136801331360E36AED
:1047400001229A401749086802430A6003EB830379
:104750009A00211D14481044FFF7EEFAFFF7E0F924
:104760000E4B1B686BB10C4B1B68DA6AE36A9A420A
:1047700007D24FF080520D4B1A60BFF34F8FBFF33B
:104780006F8F10BD044B1C601368012BD3D1FFF752
:1047900087FFD0E7583D0020C03C0020B83D0020F6
:1047A000683D00206C3D0020CC3C002004ED00E082
:1047B00070B504460E461F4B1D681F4B1868043029
:1047C000FFF7E0FA50B91C4B1B68DA6A012303FAC1
:1047D00002F21A490B6823EA02030B60B4F1FF3FAF
:1047E00014BF00230123002E08BF00239BB92C44D3
:1047F000114B1B685C60A54214D8114B18680E4B16
:1048000019680431FFF7A4FA0E4B1B689C4201D2D1
:104810000C4B1C6070BD084B196804310A48FFF747
:104820008BFA70BD094B1868034B19680431FFF708
:104830008FFA70BDE43D0020C03C00206C3D00209C
:10484000C43C00209C3D0020BC3D0020C83C002012
:104850002DE9F04385B006460F4615469846900070
:10486000FFF70EF800B381465420FFF709F804461D
:10487000B0B1C0F83090CCB10023039302940D9BEB
:1048800001930C9B009343462A4639463046FFF776
:10489000C6FE2046FFF738FF012005B0BDE8F083D3
:1048A0004846FFF777F8E6E70024E4E74FF0FF30EB
:1048B000F3E7000000B583B0194B01930023009388
:1048C000802218491848FFF7C3FF012805D0B0F12E
:1048D000FF3F19D003B05DF804FB4FF0500372B6F0
:1048E00083F31188BFF36F8FBFF34F8F62B64FF022
:1048F000FF320E4B1A6001220D4B1A6000220D4B45
:104900001A60FFF785F9E5E74FF0500372B683F3BD
:104910001188BFF36F8FBFF34F8F62B6FEE700BF02
:10492000983D0020A4E30008394C00089C3D00207D
:10493000B83D0020E43D0020024A136801331360B3
:10494000704700BF643D0020014B1868704700BFEE
:10495000E43D002008B5FFF7AFF9014B186808BD2A
:10496000E43D0020F8B53D4B1B68002B6AD13C4B61
:104970001D6801351D60D5B93A4B1B681B6853B1E2
:104980004FF0500372B683F31188BFF36F8FBFF3FC
:104990004F8F62B6FEE7334A1168334B18681060D8
:1049A0001960324A136801331360FFF715FE304B6C
:1049B0001B689D423AD200242E4B1B68DB6A03EB36
:1049C00083039A002C4B9B58012B40D901243EE0D5
:1049D0000124244B1B681B6853B3002353BB214B9A
:1049E0001B68DB68DE6873689D4228D3371D384634
:1049F000FFF7C8F9B36A1BB106F11800FFF7C2F957
:104A0000F36A01229A401D49086802430A6003EBD9
:104A100083039A00394618481044FFF78DF9F26A6B
:104A2000144B1B68DB6A9A42D2D2D2E70024D0E74B
:104A30000123D3E74FF0FF320D4B1A60BCE70C4A5D
:104A40001360B9E70E4A13680133136000240D4B5D
:104A50001B6803B101242046F8BD00BF643D00205F
:104A6000E43D0020C43C0020C83C0020A03D0020C4
:104A70009C3D0020C03C0020CC3C00206C3D002030
:104A8000603D0020E83D002038B5364B1B6853B927
:104A90004FF0500372B683F31188BFF36F8FBFF3EB
:104AA0004F8F62B6FEE7FFF715F82E4B1A68013AF2
:104AB0001A601B68002B50D12B4B1B6823B90024B4
:104AC000FFF72EF8204638BD0024284B1B681BB387
:104AD000264BDB68DC6804F11800FFF753F9251D4D
:104AE0002846FFF74FF9E36A01229A4020490868F7
:104AF00002430A6003EB83039A0029461D481044D1
:104B0000FFF71AF9E26A1C4B1B68DB6A9A42DCD396
:104B100001221A4B1A60D8E70CB1FFF75DFD184B64
:104B20001C6874B9154B1B68CBB14FF08052154B04
:104B30001A60BFF34F8FBFF36F8F0124C0E7013CB2
:104B400007D0FFF70FFF0028F9D001220B4B1A60A6
:104B5000F5E700220A4B1A60E4E70024B0E70024DE
:104B6000AEE700BF643D0020583D0020A43D00207A
:104B70006C3D0020CC3C0020C03C0020E83D0020E3
:104B8000603D002004ED00E010B5B8B10446114BC3
:104B90001B6853B14FF0500372B683F31188BFF313
:104BA0006F8FBFF34F8F62B6FEE7FFF7C5FE0021A0
:104BB0002046FFF7FDFDFFF767FF00E0002038B952
:104BC0004FF08052044B1A60BFF34F8FBFF36F8FCB
:104BD00010BD00BF643D002004ED00E0134B1B68D6
:104BE00013B310B5FFF7A8FE114B1C68FFF74CFF7D
:104BF00024B90E4B1B68002BF4D110BDFEF76AFFE1
:104C00000B4BDB68DC68201DFFF7BCF8094A136812
:104C1000013B1360054A1368013B1360FEF780FFF8
:104C20002046FFF7F3FCE4E7704700BF5C3D00203F
:104C3000D03D0020583D002008B5FFF7CFFF064BC0
:104C40001B68012BF9D94FF08052044B1A60BFF357
:104C50004F8FBFF36F8FF0E7CC3C002004ED00E0F6
:104C6000224B1B68D3B90022214B1A60214B1B68D1
:104C7000B3FA83F3DBB2C3F11F0303EB83018A00B2
:104C80001D498A5872B94FF0500372B683F31188E8
:104C9000BFF36F8FBFF34F8F62B6FEE70122144B55
:104CA0001A60704710B414489A00D418A100014447
:104CB0004C6864684C601A4491000831084484428E
:104CC0000BD003EB83039A000B4B13445B68DA6849
:104CD0000A4B1A605DF8044B7047606803EB83026F
:104CE0009100054A0A445060EBE700BF643D002094
:104CF000E83D00206C3D0020CC3C0020C03C002062
:104D000050B94FF0500372B683F31188BFF36F8F21
:104D1000BFF34F8F62B6FEE710B50C46044B19681F
:104D20001831FFF715F801212046FFF741FD10BDAE
:104D3000C03C002038B5C368DC6824B304F1180512
:104D40002846FFF71FF8194B1B683BBB251D28465B
:104D5000FFF718F8E36A01229A40154908680243F0
:104D60000A6003EB83039A00294612481044FEF7B9
:104D7000E3FFE26A104B1B68DB6A9A4213D90120F9
:104D80000E4B186038BD4FF0500372B683F3118894
:104D9000BFF36F8FBFF34F8F62B6FEE72946084817
:104DA000FEF7CAFFE5E7002038BD00BF643D0020E4
:104DB0006C3D0020CC3C0020C03C0020E83D0020A1
:104DC000A43D002030B1094A12680260084A126806
:104DD000426070474FF0500372B683F31188BFF3FF
:104DE0006F8FBFF34F8F62B6FEE700BFA03D00207C
:104DF000E43D002038B5C0B1044609B30D46FEF7C6
:104E000069FE1C4B19682B68B3F1FF3F2ED0206858
:104E1000194A1268904202D06268914228D26268B0
:104E2000881A834217D801241CE04FF0500372B651
:104E300083F31188BFF36F8FBFF34F8F62B6FEE726
:104E40004FF0500372B683F31188BFF36F8FBFF337
:104E50004F8F62B6FEE7521A13442B602046FFF7CD
:104E6000B1FF0024FEF75CFE204638BD0024F9E7C0
:104E70000124F7E7E43D0020A03D00200122014B82
:104E80001A607047E83D0020054B1B6823B1054BB5
:104E90001B681BB902207047012070470020704733
:104EA000B83D0020643D0020002847D038B50446B6
:104EB000C36A23490968C96A8B4216D281690029ED
:104EC00005DB1F490968C96AC1F107018161606991
:104ED00003EB830399001B4B0B44984206D000233D
:104EE00033B9174B1B68DB6AE36238BD0123F7E770
:104EF000251D2846FEF746FF68B9E36A03EB8301E8
:104F00008A0010498A5832B901229A400E490B682A
:104F100023EA02030B600A4B1B68DB6AE36201228F
:104F20009A400949086802430A6003EB83039A0028
:104F3000294604481044FEF7FFFE38BD704700BF05
:104F4000C03C0020CC3C00206C3D002000284ED00E
:104F500038B50446294A126890420AD04FF05003EF
:104F600072B683F31188BFF36F8FBFF34F8F62B6B2
:104F7000FEE7826C52B94FF0500372B683F311888A
:104F8000BFF36F8FBFF34F8F62B6FEE7013A8264C3
:104F9000C06A616C88422CD06ABB251D2846FEF78A
:104FA000F1FE70B9E26A02EB82018B001449CB5822
:104FB0003BB9012303FA02F212490B6823EA020308
:104FC0000B60636CE362C3F10702A261012404FA7F
:104FD00003F20C49086802430A6003EB83039A005A
:104FE000294607481044FEF7A7FE204638BD00209A
:104FF0007047002038BD002038BD00BFC03C0020F5
:10500000CC3C00206C3D0020054B1B6823B1044BB9
:105010001A68936C01339364014B1868704700BFA2
:10502000C03C0020842801D0033070470020704726
:10503000EFF30580003018BF0120704708B5FFF777
:1050400039FC002008BD08B5FFF7F2FF10B9FFF7E3
:105050007BFC08BDFFF77EFC08BDF0B585B00F46B0
:10506000446805680669B0F90800FFF7DBFF03AB89
:10507000019300903B46B2B229462046FFF7E8FB79
:10508000012802D1039805B0F0BD0020FBE708B568
:10509000034600B901231846FFF776FD002008BD3E
:1050A00008B50120FFF770F808BD000030B583B0E7
:1050B0000023019360B30C460546B1F1FF3F0DD0CC
:1050C00001B91C46FFF7B4FFB8B101AA0021284678
:1050D000FFF720FA012804D0FF2017E04FF0FF343B
:1050E000F0E7019BB3B14FF080520C4B1A60BFF355
:1050F0004F8FBFF36F8F002008E000232246194630
:105100002846FFF729F9012806D0FF2003B030BD5B
:105110008020FBE70020F9E70020F7E704ED00E03E
:1051200010B582B0044600230193FFF781FFA0B1C0
:1051300001A92046FFF7AAF8012802D0FF2002B0FB
:1051400010BD019BABB14FF080520B4B1A60BFF307
:105150004F8FBFF36F8F0020F1E700231A461946E7
:105160002046FEF739FF012801D0FF20E7E70020A5
:10517000E5E70020E3E700BF04ED00E010B50129FA
:105180000DD1032200210120FEF700FF044620B1CB
:1051900000231A461946FEF71FFF204610BD0024C3
:1051A000FBE7000030B583B00023019360B30C46E9
:1051B0000546B1F1FF3F0DD001B91C46FFF738FF9E
:1051C000B8B101AA00212846FFF7A4F9012804D0AC
:1051D000FF2017E04FF0FF34F0E7019BB3B14FF031
:1051E00080520C4B1A60BFF34F8FBFF36F8F0020BC
:1051F00008E00023224619462846FFF7ADF80128AB
:1052000006D0FF2003B030BD8020FBE70020F9E787
:105210000020F7E704ED00E010B582B0044600235B
:105220000193FFF705FFA0B101A92046FFF72EF873
:10523000012802D0FF2002B010BD019BABB14FF09E
:1052400080520B4B1A60BFF34F8FBFF36F8F00205C
:10525000F1E700231A4619462046FEF7BDFE012855
:1052600001D0FF20E7E70020E5E70020E3E700BFEB
:1052700004ED00E008B5002241680068FEF786FEF4
:1052800008BD000030B585B00446019100230393AA
:10529000154602B90125FFF7CBFEA8B1002303AAEA
:1052A00001A92046FEF77BFF012801D0FF2014E072
:1052B000039BA3B14FF080520B4B1A60BFF34F8F8B
:1052C000BFF36F8F002008E000232A4601A9204683
:1052D000FEF782FE012804D0FF2005B030BD00207B
:1052E000FBE70020F9E700BF04ED00E070B584B0F3
:1052F0000446029100230193F9B10D46164600239E
:105300000393B2F1FF3F21D002B91E46FFF790FE92
:1053100010B303AA01A92846FFF7FCF8012818D00A
:1053200000230093039B13B34FF08052164B1A6077
:10533000BFF34F8FBFF36F8F19E004AB802243F8A8
:10534000102D93E8070084E8070014E04FF0FF36C3
:10535000DCE710230093E5E70023324601A9284645
:10536000FEF7FAFF012809D05EB9002300939DE8FB
:10537000070084E80700204604B070BD10230093A6
:10538000F5E74023F2E700BF04ED00E008B5FFF7C2
:105390007BFD012801D0FEF70DFC08BDF8B50446E1
:1053A00045890E2D16D90F4640688689037813F07B
:1053B000010F0AD0012B12D00622214908F020F853
:1053C00018B9637B43F008036373082E12D0B6F557
:1053D000C16F22D0204601F04DF80020F8BD43787F
:1053E000002BF2D183785E2BEFD1637B43F0100367
:1053F0006373EAE797F82F3013F0080FEAD00D2D0A
:10540000E8DD6FF00D01204601F02AF80028E1D117
:105410003946204606F070FFDFE797F82F3013F08B
:10542000080FD7D00D2DD5DD6FF00D01204601F00E
:1054300017F80028CED13946204606F06BFBCCE7A2
:10544000ACE300082DE9F04105460C4616461F4620
:10545000BDF8180000F042F980460E21204600F009
:10546000FFFFE0B96368A3F80C803A681A60BA8855
:105470009A803268C3F80620B2885A8195F828309D
:10548000062B06D0084B4FF496720849084807F0DF
:10549000D9FFAB69214628469847BDE8F0816FF0F7
:1054A0000100BDE8F08100BFB4E30008E8E30008B4
:1054B0005CE3000800B583B0204B1B6813B1204AA1
:1054C000106898471F4807F02CFD0EE01E4B69221C
:1054D0001E491F4807F0B6FF07E0DA689968586868
:1054E00090470199092000F0E7FD164C204607F08F
:1054F0001FFD01A9174804F0EDFB204607F011FD40
:10550000019B002BE2D01A78032A0AD0042A10D07B
:10551000022AE2D00C4B9B220C490D4807F092FF67
:10552000E3E75A68986890470199082000F0C4FDA5
:10553000DBE75A6898689047D7E700BFF03D002046
:10554000F43D0020E87900208CE40008BCE4000869
:105550005CE30008EC3D0020F8B507460E46154612
:10556000134807F0BBFC88B1092000F08BFD04460E
:10557000D0B10223037047608660C56001460C48C5
:1055800007F076FC034640B91846F8BD094BB52232
:1055900009490A4807F056FFE6E72146092000F0CE
:1055A0008BFD4FF0FF33EFE74FF0FF33ECE700BF29
:1055B000EC3D00208CE400087CE400085CE300087B
:1055C00008B591F82F3013F0180F03D1034AFFF7F5
:1055D000C3FF08BD024AFFF7BFFF08BDF9C20008BC
:1055E0009D530008F8B507460E461546164807F0C5
:1055F00075FC88B1082000F045FD044600B3032384
:1056000003704760866075B901460F4807F030FCAB
:10561000034670B91846F8BD0C4BEE220C490D48F4
:1056200007F010FFE6E70146074807F015FC0023E6
:10563000F0E72146082000F03FFD4FF0FF33E9E797
:105640004FF0FF33E6E700BFEC3D00208CE400089C
:105650007CE400085CE3000830B583B005460C46E6
:1056600000F050FA134B1D60134B1C6006211348C9
:1056700007F0E0FB70B9124807F042FC90B9032331
:1056800000934FF4806300220E490F4807F055FC49
:1056900003B030BD0D4B40F2D5120D490D4807F057
:1056A000D1FEE8E7094B40F2D9120B49094807F04F
:1056B000C9FEE4E7F03D0020F43D0020EC3D002071
:1056C000E8790020B55400086CE400088CE4000878
:1056D00024E400085CE3000848E4000840BA80B213
:1056E0007047030203F47F0343EA0063020A02F4F3
:1056F0007F42134343EA10607047000008B507F08B
:10570000B9FE80B2002301E00133DBB2032B0DD8D8
:1057100003EB03121101064A0A44927A022AF3D1DA
:10572000034A0A4412899042EED1E8E708BD00BF5F
:10573000403E00202DE9F04705468846002401E060
:105740000134E4B2032C26D8264604EB440293002D
:105750002F4AD758002FF3D004EB44039A002C4B68
:1057600013441B7AAB42EBD105EB05131801103043
:10577000DFF89CA04FEA440909EB0402930053446C
:105780005A684146234B1844B8474E44B3000022A0
:105790004AF80320D4E7002301E00133DBB2032BF6
:1057A00017D8AB42F9D003EB03121101194A0A448E
:1057B000927A022AF1D1174A1144CC7B05EB0510ED
:1057C00001010A44D27B9442E7D1124B0B440422DC
:1057D000DA7305EB05131A010E4B1344DB7B032B25
:1057E00001D9BDE8F0870C4C54F8230004F0A2FC6A
:1057F000084A2B01581901011144C97B002044F8C3
:1058000021001D442B011A440423D373E9E700BF90
:10581000083E0020403E0020F83D00202DE9F047E2
:1058200084B0064600EB00131A01534B1344DB7A95
:10583000012B06D9514B40F2ED225149514807F056
:1058400001FE06EB06131A014B4B1344DA7A4E4B5A
:1058500053F8223083B306EB061213011033464F80
:105860001F443846FAF7EAFC00F11201002289B21F
:10587000104600F06BFE0546002879D00023019306
:105880000293039306EB06131A013B4B134418894A
:10589000FFF724FFADF8040001238DF806304FF424
:1058A0008073ADF808300C2201A9284601F0FCF8FD
:1058B000013F4FF00C082CE000213046FFF73AFF83
:1058C00006EB061632012C4B134400249C724BE06D
:1058D0000134E4B201373B782E2B18BF002BF7D1EF
:1058E000A7EB090A1FFA8AFA22464146284601F028
:1058F0006FF908F101039BB252464946284601F070
:1059000039F94444A4B204F101081FFA88F83B783D
:105910001BB10137B9460024DDE700224146284685
:1059200001F056F9A31C4FF48072ADF80020ADF8D9
:1059300002209BB204226946284601F01BF90E4A58
:105940003301981901011144CC7BC97A35230E4AE1
:1059500002EB810229460D4850F8240004F096FB22
:105960000446284600F086FD204604B0BDE8F087D6
:105970004FF0FF34F8E700BF403E002018E5000874
:1059800044E500085CE30008383E0020F83D0020B4
:1059900038B5044603280BD804EB04131A01414B15
:1059A00013449B7A032B75D8DFE803F07B0A205F52
:1059B0003D4B4FF47E723D493D4807F043FDEBE718
:1059C000FFF79CFE3749220115192B010B44188162
:1059D000022098720020D87201251D732244130101
:1059E000194448732046FFF719FF38BD23012344AB
:1059F00019012C4A0A44137B013BDBB21373002BC1
:105A00004FD1284A0A44537B0133DBB25373042B32
:105A100009D004EB04121101224A0A4413732046F0
:105A2000FFF7FCFE38BD1F4B0B44DB7A5A1C012AE2
:105A30000FDC204951F822205AB11A4822011519C9
:105A4000290101440133CB7201230B7300234B73F3
:105A5000E5E700212046FFF76DFE04EB0414220168
:105A6000104B134400229A7238BD04EB0412130148
:105A70000C4AD35833B1013B04EB04110A01094924
:105A80008B5073B904EB04142201064B134400221B
:105A90009A7238BD044B40F237420749044807F078
:105AA000D1FC38BD403E002018E50008DCE40008C9
:105AB0005CE30008383E0020F8E4000810B500243C
:105AC00004E02046FFF764FF0134E4B2032CF8D968
:105AD00010BD7047012800D9704721B10A68054BF5
